{
  "_format": "hh-sol-artifact-1",
  "contractName": "Hackathon",
  "sourceName": "contracts/Hackathon.sol",
  "abi": [
    {
      "inputs": [],
      "stateMutability": "nonpayable",
      "type": "constructor"
    },
    {
      "anonymous": false,
      "inputs": [
        {
          "indexed": true,
          "internalType": "address",
          "name": "project",
          "type": "address"
        },
        {
          "indexed": false,
          "internalType": "string",
          "name": "message",
          "type": "string"
        },
        {
          "indexed": false,
          "internalType": "address",
          "name": "sender",
          "type": "address"
        }
      ],
      "name": "Log",
      "type": "event"
    },
    {
      "inputs": [
        {
          "internalType": "bytes32",
          "name": "_bytes32",
          "type": "bytes32"
        }
      ],
      "name": "bToS",
      "outputs": [
        {
          "internalType": "string",
          "name": "",
          "type": "string"
        }
      ],
      "stateMutability": "pure",
      "type": "function"
    },
    {
      "inputs": [],
      "name": "erc20",
      "outputs": [
        {
          "internalType": "contract ERC20",
          "name": "",
          "type": "address"
        }
      ],
      "stateMutability": "view",
      "type": "function"
    },
    {
      "inputs": [
        {
          "internalType": "address",
          "name": "addr",
          "type": "address"
        }
      ],
      "name": "getProject",
      "outputs": [
        {
          "components": [
            {
              "internalType": "string",
              "name": "name",
              "type": "string"
            },
            {
              "internalType": "string",
              "name": "repo",
              "type": "string"
            },
            {
              "internalType": "string",
              "name": "demoUrl",
              "type": "string"
            },
            {
              "internalType": "string",
              "name": "description",
              "type": "string"
            },
            {
              "internalType": "address",
              "name": "addr",
              "type": "address"
            },
            {
              "internalType": "uint256",
              "name": "challenge",
              "type": "uint256"
            }
          ],
          "internalType": "struct Hackathon.Project",
          "name": "",
          "type": "tuple"
        }
      ],
      "stateMutability": "view",
      "type": "function"
    },
    {
      "inputs": [],
      "name": "openVote",
      "outputs": [
        {
          "internalType": "bool",
          "name": "",
          "type": "bool"
        }
      ],
      "stateMutability": "view",
      "type": "function"
    },
    {
      "inputs": [],
      "name": "owner",
      "outputs": [
        {
          "internalType": "address",
          "name": "",
          "type": "address"
        }
      ],
      "stateMutability": "view",
      "type": "function"
    },
    {
      "inputs": [
        {
          "internalType": "address",
          "name": "",
          "type": "address"
        }
      ],
      "name": "projectChallenges",
      "outputs": [
        {
          "internalType": "uint256",
          "name": "",
          "type": "uint256"
        }
      ],
      "stateMutability": "view",
      "type": "function"
    },
    {
      "inputs": [
        {
          "internalType": "address",
          "name": "",
          "type": "address"
        }
      ],
      "name": "projectDemoUrls",
      "outputs": [
        {
          "internalType": "string",
          "name": "",
          "type": "string"
        }
      ],
      "stateMutability": "view",
      "type": "function"
    },
    {
      "inputs": [
        {
          "internalType": "address",
          "name": "",
          "type": "address"
        }
      ],
      "name": "projectDescriptions",
      "outputs": [
        {
          "internalType": "string",
          "name": "",
          "type": "string"
        }
      ],
      "stateMutability": "view",
      "type": "function"
    },
    {
      "inputs": [
        {
          "internalType": "address",
          "name": "",
          "type": "address"
        }
      ],
      "name": "projectNames",
      "outputs": [
        {
          "internalType": "string",
          "name": "",
          "type": "string"
        }
      ],
      "stateMutability": "view",
      "type": "function"
    },
    {
      "inputs": [
        {
          "internalType": "address",
          "name": "",
          "type": "address"
        }
      ],
      "name": "projectOwners",
      "outputs": [
        {
          "internalType": "address",
          "name": "",
          "type": "address"
        }
      ],
      "stateMutability": "view",
      "type": "function"
    },
    {
      "inputs": [
        {
          "internalType": "address",
          "name": "",
          "type": "address"
        }
      ],
      "name": "projectRepos",
      "outputs": [
        {
          "internalType": "string",
          "name": "",
          "type": "string"
        }
      ],
      "stateMutability": "view",
      "type": "function"
    },
    {
      "inputs": [
        {
          "internalType": "address",
          "name": "",
          "type": "address"
        }
      ],
      "name": "projectVotes",
      "outputs": [
        {
          "internalType": "uint256",
          "name": "_value",
          "type": "uint256"
        }
      ],
      "stateMutability": "view",
      "type": "function"
    },
    {
      "inputs": [
        {
          "internalType": "bool",
          "name": "open",
          "type": "bool"
        }
      ],
      "name": "setOpenVote",
      "outputs": [],
      "stateMutability": "nonpayable",
      "type": "function"
    },
    {
      "inputs": [
        {
          "internalType": "string",
          "name": "repo",
          "type": "string"
        },
        {
          "internalType": "string",
          "name": "name",
          "type": "string"
        },
        {
          "internalType": "string",
          "name": "demoUrl",
          "type": "string"
        },
        {
          "internalType": "address",
          "name": "project",
          "type": "address"
        },
        {
          "internalType": "string",
          "name": "description",
          "type": "string"
        },
        {
          "internalType": "uint256",
          "name": "challenge",
          "type": "uint256"
        }
      ],
      "name": "setProject",
      "outputs": [],
      "stateMutability": "nonpayable",
      "type": "function"
    },
    {
      "inputs": [
        {
          "internalType": "string",
          "name": "",
          "type": "string"
        }
      ],
      "name": "userProjectVotes",
      "outputs": [
        {
          "internalType": "uint256",
          "name": "",
          "type": "uint256"
        }
      ],
      "stateMutability": "view",
      "type": "function"
    },
    {
      "inputs": [
        {
          "internalType": "address",
          "name": "project",
          "type": "address"
        },
        {
          "internalType": "uint256",
          "name": "vote",
          "type": "uint256"
        }
      ],
      "name": "voteOnProject",
      "outputs": [],
      "stateMutability": "nonpayable",
      "type": "function"
    },
    {
      "inputs": [],
      "name": "withdraw",
      "outputs": [],
      "stateMutability": "nonpayable",
      "type": "function"
    },
    {
      "inputs": [
        {
          "internalType": "address",
          "name": "erc20Addr",
          "type": "address"
        }
      ],
      "name": "withdrawERC20",
      "outputs": [],
      "stateMutability": "nonpayable",
      "type": "function"
    }
  ],
  "bytecode": "0x608060405234801561001057600080fd5b5033600160006101000a81548173ffffffffffffffffffffffffffffffffffffffff021916908373ffffffffffffffffffffffffffffffffffffffff1602179055506127d0806100616000396000f3fe608060405234801561001057600080fd5b50600436106101165760003560e01c80638da5cb5b116100a2578063d9dd057c11610071578063d9dd057c14610307578063e234a1b714610337578063f4f3b20014610367578063f987070514610383578063fbd93ad5146103b357610116565b80638da5cb5b1461026b578063aa8d536a14610289578063c6ba54f3146102b9578063d107d8c2146102e957610116565b806359e051c7116100e957806359e051c7146101b55780636872ca47146101d1578063785e9e86146101ed5780637c654eb41461020b57806382f569bc1461023b57610116565b8063089e88cd1461011b5780633561f7b61461014b5780633ccfd60b1461017b57806357b1ee8b14610185575b600080fd5b610135600480360381019061013091906119f9565b6103cf565b6040516101429190611abf565b60405180910390f35b610165600480360381019061016091906119f9565b61046f565b6040516101729190611abf565b60405180910390f35b61018361050f565b005b61019f600480360381019061019a91906119f9565b6105e6565b6040516101ac9190611abf565b60405180910390f35b6101cf60048036038101906101ca9190611c4c565b610686565b005b6101eb60048036038101906101e69190611d49565b610b2e565b005b6101f5610daf565b6040516102029190611de8565b60405180910390f35b61022560048036038101906102209190611e03565b610dd5565b6040516102329190611e5b565b60405180910390f35b610255600480360381019061025091906119f9565b610e03565b6040516102629190611e5b565b60405180910390f35b610273610e1b565b6040516102809190611e85565b60405180910390f35b6102a3600480360381019061029e91906119f9565b610e41565b6040516102b09190611abf565b60405180910390f35b6102d360048036038101906102ce9190611ed6565b610ee1565b6040516102e09190611abf565b60405180910390f35b6102f161107c565b6040516102fe9190611f1e565b60405180910390f35b610321600480360381019061031c91906119f9565b61108d565b60405161032e9190611e5b565b60405180910390f35b610351600480360381019061034c91906119f9565b6110ab565b60405161035e9190611e85565b60405180910390f35b610381600480360381019061037c91906119f9565b6110de565b005b61039d600480360381019061039891906119f9565b611245565b6040516103aa919061203f565b60405180910390f35b6103cd60048036038101906103c8919061208d565b61161f565b005b600360205280600052604060002060009150905080546103ee906120e9565b80601f016020809104026020016040519081016040528092919081815260200182805461041a906120e9565b80156104675780601f1061043c57610100808354040283529160200191610467565b820191906000526020600020905b81548152906001019060200180831161044a57829003601f168201915b505050505081565b6002602052806000526040600020600091509050805461048e906120e9565b80601f01602080910402602001604051908101604052809291908181526020018280546104ba906120e9565b80156105075780601f106104dc57610100808354040283529160200191610507565b820191906000526020600020905b8154815290600101906020018083116104ea57829003601f168201915b505050505081565b60004790506000600160009054906101000a900473ffffffffffffffffffffffffffffffffffffffff1673ffffffffffffffffffffffffffffffffffffffff168260405161055c9061214c565b60006040518083038185875af1925050503d8060008114610599576040519150601f19603f3d011682016040523d82523d6000602084013e61059e565b606091505b50509050806105e2576040517f08c379a00000000000000000000000000000000000000000000000000000000081526004016105d9906121ad565b60405180910390fd5b5050565b60056020528060005260406000206000915090508054610605906120e9565b80601f0160208091040260200160405190810160405280929190818152602001828054610631906120e9565b801561067e5780601f106106535761010080835404028352916020019161067e565b820191906000526020600020905b81548152906001019060200180831161066157829003601f168201915b505050505081565b600083905060008173ffffffffffffffffffffffffffffffffffffffff16638da5cb5b6040518163ffffffff1660e01b8152600401602060405180830381865afa1580156106d8573d6000803e3d6000fd5b505050506040513d601f19601f820116820180604052508101906106fc91906121e2565b90503373ffffffffffffffffffffffffffffffffffffffff168173ffffffffffffffffffffffffffffffffffffffff161461076c576040517f08c379a00000000000000000000000000000000000000000000000000000000081526004016107639061225b565b60405180910390fd5b6000875114156107b1576040517f08c379a00000000000000000000000000000000000000000000000000000000081526004016107a8906122c7565b60405180910390fd5b6000885114156107f6576040517f08c379a00000000000000000000000000000000000000000000000000000000081526004016107ed90612333565b60405180910390fd5b60008651141561083b576040517f08c379a0000000000000000000000000000000000000000000000000000000008152600401610832906122c7565b60405180910390fd5b600080600360008873ffffffffffffffffffffffffffffffffffffffff1673ffffffffffffffffffffffffffffffffffffffff1681526020019081526020016000208054610888906120e9565b905014905087600360008873ffffffffffffffffffffffffffffffffffffffff1673ffffffffffffffffffffffffffffffffffffffff16815260200190815260200160002090805190602001906108e0929190611898565b5033600460008873ffffffffffffffffffffffffffffffffffffffff1673ffffffffffffffffffffffffffffffffffffffff16815260200190815260200160002060006101000a81548173ffffffffffffffffffffffffffffffffffffffff021916908373ffffffffffffffffffffffffffffffffffffffff16021790555088600260008873ffffffffffffffffffffffffffffffffffffffff1673ffffffffffffffffffffffffffffffffffffffff16815260200190815260200160002090805190602001906109b2929190611898565b5086600560008873ffffffffffffffffffffffffffffffffffffffff1673ffffffffffffffffffffffffffffffffffffffff1681526020019081526020016000209080519060200190610a06929190611898565b5084600660008873ffffffffffffffffffffffffffffffffffffffff1673ffffffffffffffffffffffffffffffffffffffff1681526020019081526020016000209080519060200190610a5a929190611898565b5083600760008873ffffffffffffffffffffffffffffffffffffffff1673ffffffffffffffffffffffffffffffffffffffff16815260200190815260200160002081905550610aa8886116cb565b610ab1896116cb565b610aba876116cb565b610ac384611764565b610acc856116cb565b8015610b23578573ffffffffffffffffffffffffffffffffffffffff167f92cf4f4462b729d4bee15b49770fedc298b74da58df8f0aa416350ca745ce3d38933604051610b1a929190612353565b60405180910390a25b505050505050505050565b60008054906101000a900460ff16610c2a5760008060019054906101000a900473ffffffffffffffffffffffffffffffffffffffff16905060008173ffffffffffffffffffffffffffffffffffffffff166370a08231336040518263ffffffff1660e01b8152600401610ba19190611e85565b602060405180830381865afa158015610bbe573d6000803e3d6000fd5b505050506040513d601f19601f82011682018060405250810190610be29190612398565b905060008111610c27576040517f08c379a0000000000000000000000000000000000000000000000000000000008152600401610c1e90612437565b60405180910390fd5b50505b60003383604051602001610c3f92919061249f565b604051602081830303815290604052610c5790612508565b90506000610c6482610ee1565b90506000600982604051610c7891906125ab565b908152602001604051809103902054905083811415610c9957505050610dab565b600184148015610ca95750600081145b15610d205783600983604051610cbf91906125ab565b908152602001604051809103902081905550610d18600860008773ffffffffffffffffffffffffffffffffffffffff1673ffffffffffffffffffffffffffffffffffffffff1681526020019081526020016000206117fd565b505050610dab565b600084148015610d305750600181145b15610da75783600983604051610d4691906125ab565b908152602001604051809103902081905550610d9f600860008773ffffffffffffffffffffffffffffffffffffffff1673ffffffffffffffffffffffffffffffffffffffff168152602001908152602001600020611813565b505050610dab565b5050505b5050565b600060019054906101000a900473ffffffffffffffffffffffffffffffffffffffff1681565b6009818051602081018201805184825260208301602085012081835280955050505050506000915090505481565b60076020528060005260406000206000915090505481565b600160009054906101000a900473ffffffffffffffffffffffffffffffffffffffff1681565b60066020528060005260406000206000915090508054610e60906120e9565b80601f0160208091040260200160405190810160405280929190818152602001828054610e8c906120e9565b8015610ed95780601f10610eae57610100808354040283529160200191610ed9565b820191906000526020600020905b815481529060010190602001808311610ebc57829003601f168201915b505050505081565b606060005b60208160ff16108015610f385750600060f81b838260ff1660208110610f0f57610f0e6125c2565b5b1a60f81b7effffffffffffffffffffffffffffffffffffffffffffffffffffffffffffff191614155b15610f50578080610f489061262d565b915050610ee6565b60008160ff1667ffffffffffffffff811115610f6f57610f6e611aeb565b5b6040519080825280601f01601f191660200182016040528015610fa15781602001600182028036833780820191505090505b509050600091505b60208260ff16108015610ffb5750600060f81b848360ff1660208110610fd257610fd16125c2565b5b1a60f81b7effffffffffffffffffffffffffffffffffffffffffffffffffffffffffffff191614155b1561107257838260ff1660208110611016576110156125c2565b5b1a60f81b818360ff16815181106110305761102f6125c2565b5b60200101907effffffffffffffffffffffffffffffffffffffffffffffffffffffffffffff1916908160001a905350818061106a9061262d565b925050610fa9565b8092505050919050565b60008054906101000a900460ff1681565b60086020528060005260406000206000915090508060000154905081565b60046020528060005260406000206000915054906101000a900473ffffffffffffffffffffffffffffffffffffffff1681565b600081905060008173ffffffffffffffffffffffffffffffffffffffff166370a08231306040518263ffffffff1660e01b815260040161111e9190611e85565b602060405180830381865afa15801561113b573d6000803e3d6000fd5b505050506040513d601f19601f8201168201806040525081019061115f9190612398565b90508173ffffffffffffffffffffffffffffffffffffffff1663a9059cbb600160009054906101000a900473ffffffffffffffffffffffffffffffffffffffff16836040518363ffffffff1660e01b81526004016111be929190612657565b6020604051808303816000875af11580156111dd573d6000803e3d6000fd5b505050506040513d601f19601f820116820180604052508101906112019190612695565b611240576040517f08c379a0000000000000000000000000000000000000000000000000000000008152600401611237906121ad565b60405180910390fd5b505050565b61124d61191e565b61125561191e565b82816080019073ffffffffffffffffffffffffffffffffffffffff16908173ffffffffffffffffffffffffffffffffffffffff1681525050600360008473ffffffffffffffffffffffffffffffffffffffff1673ffffffffffffffffffffffffffffffffffffffff16815260200190815260200160002080546112d7906120e9565b80601f0160208091040260200160405190810160405280929190818152602001828054611303906120e9565b80156113505780601f1061132557610100808354040283529160200191611350565b820191906000526020600020905b81548152906001019060200180831161133357829003601f168201915b50505050508160000181905250600260008473ffffffffffffffffffffffffffffffffffffffff1673ffffffffffffffffffffffffffffffffffffffff16815260200190815260200160002080546113a7906120e9565b80601f01602080910402602001604051908101604052809291908181526020018280546113d3906120e9565b80156114205780601f106113f557610100808354040283529160200191611420565b820191906000526020600020905b81548152906001019060200180831161140357829003601f168201915b50505050508160200181905250600560008473ffffffffffffffffffffffffffffffffffffffff1673ffffffffffffffffffffffffffffffffffffffff1681526020019081526020016000208054611477906120e9565b80601f01602080910402602001604051908101604052809291908181526020018280546114a3906120e9565b80156114f05780601f106114c5576101008083540402835291602001916114f0565b820191906000526020600020905b8154815290600101906020018083116114d357829003601f168201915b50505050508160400181905250600660008473ffffffffffffffffffffffffffffffffffffffff1673ffffffffffffffffffffffffffffffffffffffff1681526020019081526020016000208054611547906120e9565b80601f0160208091040260200160405190810160405280929190818152602001828054611573906120e9565b80156115c05780601f10611595576101008083540402835291602001916115c0565b820191906000526020600020905b8154815290600101906020018083116115a357829003601f168201915b50505050508160600181905250600760008473ffffffffffffffffffffffffffffffffffffffff1673ffffffffffffffffffffffffffffffffffffffff168152602001908152602001600020548160a001818152505080915050919050565b600160009054906101000a900473ffffffffffffffffffffffffffffffffffffffff1673ffffffffffffffffffffffffffffffffffffffff163373ffffffffffffffffffffffffffffffffffffffff16146116af576040517f08c379a00000000000000000000000000000000000000000000000000000000081526004016116a69061270e565b60405180910390fd5b806000806101000a81548160ff02191690831515021790555050565b611761816040516024016116df9190611abf565b6040516020818303038152906040527f41304fac000000000000000000000000000000000000000000000000000000007bffffffffffffffffffffffffffffffffffffffffffffffffffffffff19166020820180517bffffffffffffffffffffffffffffffffffffffffffffffffffffffff838183161783525050505061186f565b50565b6117fa816040516024016117789190611e5b565b6040516020818303038152906040527ff5b1bba9000000000000000000000000000000000000000000000000000000007bffffffffffffffffffffffffffffffffffffffffffffffffffffffff19166020820180517bffffffffffffffffffffffffffffffffffffffffffffffffffffffff838183161783525050505061186f565b50565b6001816000016000828254019250508190555050565b6000816000015490506000811161185f576040517f08c379a00000000000000000000000000000000000000000000000000000000081526004016118569061277a565b60405180910390fd5b6001810382600001819055505050565b60008151905060006a636f6e736f6c652e6c6f679050602083016000808483855afa5050505050565b8280546118a4906120e9565b90600052602060002090601f0160209004810192826118c6576000855561190d565b82601f106118df57805160ff191683800117855561190d565b8280016001018555821561190d579182015b8281111561190c5782518255916020019190600101906118f1565b5b50905061191a919061196a565b5090565b6040518060c0016040528060608152602001606081526020016060815260200160608152602001600073ffffffffffffffffffffffffffffffffffffffff168152602001600081525090565b5b8082111561198357600081600090555060010161196b565b5090565b6000604051905090565b600080fd5b600080fd5b600073ffffffffffffffffffffffffffffffffffffffff82169050919050565b60006119c68261199b565b9050919050565b6119d6816119bb565b81146119e157600080fd5b50565b6000813590506119f3816119cd565b92915050565b600060208284031215611a0f57611a0e611991565b5b6000611a1d848285016119e4565b91505092915050565b600081519050919050565b600082825260208201905092915050565b60005b83811015611a60578082015181840152602081019050611a45565b83811115611a6f576000848401525b50505050565b6000601f19601f8301169050919050565b6000611a9182611a26565b611a9b8185611a31565b9350611aab818560208601611a42565b611ab481611a75565b840191505092915050565b60006020820190508181036000830152611ad98184611a86565b905092915050565b600080fd5b600080fd5b7f4e487b7100000000000000000000000000000000000000000000000000000000600052604160045260246000fd5b611b2382611a75565b810181811067ffffffffffffffff82111715611b4257611b41611aeb565b5b80604052505050565b6000611b55611987565b9050611b618282611b1a565b919050565b600067ffffffffffffffff821115611b8157611b80611aeb565b5b611b8a82611a75565b9050602081019050919050565b82818337600083830152505050565b6000611bb9611bb484611b66565b611b4b565b905082815260208101848484011115611bd557611bd4611ae6565b5b611be0848285611b97565b509392505050565b600082601f830112611bfd57611bfc611ae1565b5b8135611c0d848260208601611ba6565b91505092915050565b6000819050919050565b611c2981611c16565b8114611c3457600080fd5b50565b600081359050611c4681611c20565b92915050565b60008060008060008060c08789031215611c6957611c68611991565b5b600087013567ffffffffffffffff811115611c8757611c86611996565b5b611c9389828a01611be8565b965050602087013567ffffffffffffffff811115611cb457611cb3611996565b5b611cc089828a01611be8565b955050604087013567ffffffffffffffff811115611ce157611ce0611996565b5b611ced89828a01611be8565b9450506060611cfe89828a016119e4565b935050608087013567ffffffffffffffff811115611d1f57611d1e611996565b5b611d2b89828a01611be8565b92505060a0611d3c89828a01611c37565b9150509295509295509295565b60008060408385031215611d6057611d5f611991565b5b6000611d6e858286016119e4565b9250506020611d7f85828601611c37565b9150509250929050565b6000819050919050565b6000611dae611da9611da48461199b565b611d89565b61199b565b9050919050565b6000611dc082611d93565b9050919050565b6000611dd282611db5565b9050919050565b611de281611dc7565b82525050565b6000602082019050611dfd6000830184611dd9565b92915050565b600060208284031215611e1957611e18611991565b5b600082013567ffffffffffffffff811115611e3757611e36611996565b5b611e4384828501611be8565b91505092915050565b611e5581611c16565b82525050565b6000602082019050611e706000830184611e4c565b92915050565b611e7f816119bb565b82525050565b6000602082019050611e9a6000830184611e76565b92915050565b6000819050919050565b611eb381611ea0565b8114611ebe57600080fd5b50565b600081359050611ed081611eaa565b92915050565b600060208284031215611eec57611eeb611991565b5b6000611efa84828501611ec1565b91505092915050565b60008115159050919050565b611f1881611f03565b82525050565b6000602082019050611f336000830184611f0f565b92915050565b600082825260208201905092915050565b6000611f5582611a26565b611f5f8185611f39565b9350611f6f818560208601611a42565b611f7881611a75565b840191505092915050565b611f8c816119bb565b82525050565b611f9b81611c16565b82525050565b600060c0830160008301518482036000860152611fbe8282611f4a565b91505060208301518482036020860152611fd88282611f4a565b91505060408301518482036040860152611ff28282611f4a565b9150506060830151848203606086015261200c8282611f4a565b91505060808301516120216080860182611f83565b5060a083015161203460a0860182611f92565b508091505092915050565b600060208201905081810360008301526120598184611fa1565b905092915050565b61206a81611f03565b811461207557600080fd5b50565b60008135905061208781612061565b92915050565b6000602082840312156120a3576120a2611991565b5b60006120b184828501612078565b91505092915050565b7f4e487b7100000000000000000000000000000000000000000000000000000000600052602260045260246000fd5b6000600282049050600182168061210157607f821691505b60208210811415612115576121146120ba565b5b50919050565b600081905092915050565b50565b600061213660008361211b565b915061214182612126565b600082019050919050565b600061215782612129565b9150819050919050565b7f4661696c65640000000000000000000000000000000000000000000000000000600082015250565b6000612197600683611a31565b91506121a282612161565b602082019050919050565b600060208201905081810360008301526121c68161218a565b9050919050565b6000815190506121dc816119cd565b92915050565b6000602082840312156121f8576121f7611991565b5b6000612206848285016121cd565b91505092915050565b7f6f6e6c792070726f6a656374206f776e65720000000000000000000000000000600082015250565b6000612245601283611a31565b91506122508261220f565b602082019050919050565b6000602082019050818103600083015261227481612238565b9050919050565b7f70726f6a656374206e616d65206d697373696e67000000000000000000000000600082015250565b60006122b1601483611a31565b91506122bc8261227b565b602082019050919050565b600060208201905081810360008301526122e0816122a4565b9050919050565b7f70726f6a656374207265706f206d697373696e67000000000000000000000000600082015250565b600061231d601483611a31565b9150612328826122e7565b602082019050919050565b6000602082019050818103600083015261234c81612310565b9050919050565b6000604082019050818103600083015261236d8185611a86565b905061237c6020830184611e76565b9392505050565b60008151905061239281611c20565b92915050565b6000602082840312156123ae576123ad611991565b5b60006123bc84828501612383565b91505092915050565b7f796f7520646f6e27742068617665207065726d697373696f6e20746f20766f7460008201527f6500000000000000000000000000000000000000000000000000000000000000602082015250565b6000612421602183611a31565b915061242c826123c5565b604082019050919050565b6000602082019050818103600083015261245081612414565b9050919050565b60008160601b9050919050565b600061246f82612457565b9050919050565b600061248182612464565b9050919050565b612499612494826119bb565b612476565b82525050565b60006124ab8285612488565b6014820191506124bb8284612488565b6014820191508190509392505050565b600081519050919050565b6000819050602082019050919050565b60006124f28251611ea0565b80915050919050565b600082821b905092915050565b6000612513826124cb565b8261251d846124d6565b9050612528816124e6565b92506020821015612568576125637fffffffffffffffffffffffffffffffffffffffffffffffffffffffffffffffff836020036008026124fb565b831692505b5050919050565b600081905092915050565b600061258582611a26565b61258f818561256f565b935061259f818560208601611a42565b80840191505092915050565b60006125b7828461257a565b915081905092915050565b7f4e487b7100000000000000000000000000000000000000000000000000000000600052603260045260246000fd5b7f4e487b7100000000000000000000000000000000000000000000000000000000600052601160045260246000fd5b600060ff82169050919050565b600061263882612620565b915060ff82141561264c5761264b6125f1565b5b600182019050919050565b600060408201905061266c6000830185611e76565b6126796020830184611e4c565b9392505050565b60008151905061268f81612061565b92915050565b6000602082840312156126ab576126aa611991565b5b60006126b984828501612680565b91505092915050565b7f6f6e6c79206f776e657200000000000000000000000000000000000000000000600082015250565b60006126f8600a83611a31565b9150612703826126c2565b602082019050919050565b60006020820190508181036000830152612727816126eb565b9050919050565b7f436f756e7465723a2064656372656d656e74206f766572666c6f770000000000600082015250565b6000612764601b83611a31565b915061276f8261272e565b602082019050919050565b6000602082019050818103600083015261279381612757565b905091905056fea264697066735822122022b9f4b7e2c1030187e989f8ea0d12c90ded7ce3053b2e94edcc656c9dcac56164736f6c634300080b0033",
  "linkReferences": {},
  "deployedLinkReferences": {}
}